:020000040800F2
:1000000000800120790600089F040008A50400086C
:10001000AB040008B1040008B704000800000000A9
:10002000000000000000000000000000BD04000807
:10003000CB04000800000000D9040008E704000811
:1000400000000000CD060008CD060008CD0600081F
:10005000CD060008CD060008CD060008F304000810
:10006000CD060008CD060008CD060008CD06000824
:10007000CD060008CD060008CD060008CD06000814
:10008000CD060008CD060008CD06000800000000DF
:10009000000000000000000000000000CD06000885
:1000A000CD060008CD060008CD060008CD060008E4
:1000B000CD060008CD060008CD060008CD060008D4
:1000C000CD060008CD060008CD060008CD060008C4
:1000D000CD060008CD060008CD060008000000008F
:1000E000CD060008CD060008CD060008000000007F
:1000F000000000000000000000000000CD06000825
:1001000000000000CD060008CD060008CD0600085E
:1001100000000000000000000000000000000000DF
:1001200001050008CD060008CD060008CD06000830
:10013000CD060008000000000000000000000000E4
:10014000000000000000000000000000CD060008D4
:10015000CD060008CD060008CD060008CD06000833
:10016000CD060008CD0600080000000000000000D9
:10017000000000000000000000000000000000007F
:10018000000000000000000000000000000000006F
:04019000CD06000890
:1001940010B5054C237833B9044B13B10448AFF3BD
:1001A40000800123237010BD040000200000000023
:1001B4001807000808B5034B1BB103490348AFF304
:1001C400008008BD00000000080000201807000897
:1001D40080B400AF084B1B6803F02003202B05D12B
:1001E400054B3D229A60054B01221A7000BFBD46A3
:1001F4005DF8047B704700BF0064024020000020CB
:1002040080B400AF1A4B1B6B194A43F00803136305
:10021400184B1B68174A23F00F031360154B1B6818
:10022400144A43F005031360124B5B68114A23F030
:10023400030353600F4B9B680E4A43F00A03936019
:100244000B4B5B6C0A4A43F4804353640A4B1B6AAE
:10025400094A43F001031362064BDB68054A23F0A5
:100264000F03D36000BFBD465DF8047B704700BF39
:1002740000380240000C02400038014080B485B0D0
:1002840000AF78607B6803F00703FB600C4BDB680E
:10029400BB60BA684FF6FF031340BB60FB681A02E9
:1002A400BB68134343F0BF6343F40033BB60044AA9
:1002B400BB68D36000BF1437BD465DF8047B70474C
:1002C40000ED00E080B483B000AF0346FB7197F902
:1002D4000730002B0BDBFB7903F01F02074997F96A
:1002E40007305B09012000FA02F241F8232000BF25
:1002F4000C37BD465DF8047B704700BF00E100E0A9
:1003040080B483B000AF03463960FB7197F90730BE
:10031400002B0ADB3B68DAB20C4997F9073012016B
:10032400D2B20B4483F800230AE03B68DAB20849EE
:10033400FB7903F00F03043B1201D2B20B441A768B
:1003440000BF0C37BD465DF8047B704700E100E058
:1003540000ED00E080B500AF0320FFF78FFF002120
:100364004FF0FF30FFF7CCFF01210720FFF7C8FF54
:1003740001213820FFF7C4FF0720FFF7A3FF38202F
:10038400FFF7A0FF00BF80BD80B483B000AF034679
:100394003960FB7197F90730002B0ADB3B68DAB24E
:1003A4000C4997F907301201D2B20B4483F80023A9
:1003B4000AE03B68DAB20849FB7903F00F03043B17
:1003C4001201D2B20B441A7600BF0C37BD465DF859
:1003D400047B704700E100E000ED00E080B582B0EE
:1003E40000AF78607B68013BB3F1807F01D30123C8
:1003F4000FE00A4A7B68013B53600F214FF0FF3046
:10040400FFF7C2FF054B00229A60044B07221A60D3
:10041400002318460837BD4680BD00BF10E000E049
:1004240080B400AF044B1B680133034A136000BF60
:10043400BD465DF8047B70472400002080B582B07F
:1004440000AF00F097F80C4B1B680C4A934200D0A5
:10045400FEE7094B1B680A4AA2FB03239B091846C3
:10046400FFF7BCFF78607B68002B00D0FEE700BF7D
:100474000837BD4680BD00BF000000200024F40002
:10048400D34D621080B500AFFFF7D8FFFFF762FFCE
:10049400FFF7B6FE62B600BFFEE780B400AFFEE72A
:1004A40080B400AFFEE780B400AFFEE780B400AFD5
:1004B400FEE780B400AFFEE780B400AF00BFBD46E6
:1004C4005DF8047B704780B400AF00BFBD465DF8A3
:1004D400047B704780B400AF00BFBD465DF8047B69
:1004E400704780B500AFFFF79BFF00BF80BD80B4AD
:1004F40000AF00BFBD465DF8047B704780B500AF18
:10050400FFF766FE00BF80BD80B400AF164BD3F882
:100514008830154A43F47003C2F88830134B1B68C3
:10052400124A43F001031360104B00229A600F4BF0
:100534001B680E4A23F0847323F4803313600B4B3F
:100544000B4A5A60094B1B68084A23F48023136042
:10055400064B0022DA60044B4FF000629A6000BF41
:10056400BD465DF8047B704700ED00E000380240B2
:100574001030002480B487B000AF00233B61002317
:100584007B610223FB600023BB6002237B60344B4E
:100594009B6803F00C033B613B69082B11D03B695A
:1005A400082B44D83B69002B03D03B69042B04D0AF
:1005B4003DE02C4B2C4A1A603DE02A4B2B4A1A6032
:1005C40039E0274B5B689B0D03F00103BB60244BB0
:1005D4005B6803F03F037B60BB68002B0CD0234AAD
:1005E4007B68B2FBF3F31E4A52689209C2F3080215
:1005F40002FB03F37B610BE01B4A7B68B2FBF3F362
:10060400174A52689209C2F3080202FB03F37B61A2
:10061400134B5B681B0C03F0030301335B00FB60AB
:100624007A69FB68B2FBF3F30E4A136003E00D4BE7
:100634000D4A1A6000BF0A4B9B681B0903F00F03A5
:100644000B4AD35C3B61074B1A683B6922FA03F3FC
:10065400044A136000BF1C37BD465DF8047B704735
:1006640000380240000000200024F40040787D019E
:10067400300700080E48854672B6FFF745FF0D485F
:100684000D490E4A002302E0D458C4500433C41860
:100694008C42F9D30A4A0B4C002301E01360043264
:1006A400A242FBD300F012F8FFF7ECFEFEE70000D5
:1006B40000800120000000200400002048070008FA
:1006C4000400002028000020FEE7000070B50D4D56
:1006D4000D4C641BA4100026A64209D10B4D0C4CF2
:1006E40000F018F8641BA4100026A64205D170BDC2
:1006F40055F8043B98470136EEE755F8043B984714
:100704000136F2E7400700084007000840070008E8
:1007140044070008F8B500BFF8BC08BC9E46704703
:0C072400F8B500BFF8BC08BC9E4670474A
:100730000000000000000000010203040607080991
:04074000B9010008F3
:040744009501000813
:040748000024F40095
:040000050800067970
:00000001FF
